:060000000A128A110C280F
:10000800FE00030EF7000A08F8000A128A112E28CB
:100018000A128A110F280A128A1134220A128A1126
:10002800A7000A128A1135220A128A11A8000A1298
:100038008A1136220A128A11FA00A401A501A60122
:10004800F001F101F201F301F401F50183010A1253
:100058008A1125290B1D3128322874280130F60011
:100068007608F50733307106031D3B283C286828BD
:100078007503031D402841284628023083120313C4
:100088008600682802307506031D4B284C28512825
:100098000430831203138600682803307506031D95
:1000A800562857285C2808308312031386006828CE
:1000B80004307506031D61286228682810308312F1
:1000C80003138600F501682804307506031D6D28A2
:1000D8006E286F28F5010A128A112E220A128A1137
:1000E800831203138C1E79287A28B5280030181932
:1000F8000130A500003098180130A4001A08F60055
:100108007608F2009A013230720203188C288D2882
:1001180092287208F6007608F300B5283230720289
:10012800031C97289828A3283430720203189D28A6
:100138009E28A3287208F6007608F100B528343006
:100148007202031CA828A928B428363072020318A2
:10015800AE28AF28B4287208F6007608F000B52853
:10016800F20178088A00770E8300FE0E7E0E0900E1
:10017800F128F8308316031381051A29831603130F
:100188000108F839013881001A2983160313010878
:10019800F839023881001A29831603130108F8393F
:1001A800033881001A29831603130108F839043823
:1001B80081001A29831603130108F83905388100CC
:1001C8001A29831603130108F839063881001A29F9
:1001D80007308316031381041A2983120313210895
:1001E800003A0319FB28013A031915291A2920088E
:1001F800003A03191A29023A0319BD28063A0319C5
:10020800C2280C3A0319C928183A0319D028303AD9
:100218000319D728603A0319DE28C03A0319E528DC
:100228001A292008003A0319EC281A2983160313FF
:10023800811281118B160B11B230831203138100C6
:1002480008000A128A111D220A128A1101300A12A4
:100258008A116E210A128A11103083120313A0002A
:100268000030A1000A128A11BC200A128A110A124F
:100278008A1103220A128A1130307306031D452998
:1002880046294C290A128A11D7210A128A1157299C
:1002980031307306031D5129522957290A128A1130
:1002A800AB210A128A1134307006031D5C295D29BE
:1002B8006129831203138810402935307006031D05
:1002C80066296729402983120313881440290A12D2
:1002D8008A110C28F9009129831603130F088F3906
:1002E80040388F00A929831603130F088F39503817
:1002F8008F00A929831603130F088F3960388F00E0
:10030800A9297030831603138F04A92983160313B0
:100318000F088F3960388F00A929790883120313D1
:10032800A000A1012108003A03199B298A29200865
:10033800013A03197029033A03197729063A031970
:100348007E290C3A031985298A290F14080083127B
:100358000313A201A3010815B63083120313A000EA
:10036800A00BB4290000831203130811063083126E
:100378000313A100C530A000A00BC029A10BC02900
:10038800C529013083120313A2070318A30A0030FA
:10039800A30700302302323003192202031CD52997
:1003A800D629AF29080083120313A201A301081557
:1003B800283083120313A000A00BE029E32983123D
:1003C80003130811073083120313A1005230A00051
:1003D800A00BEC29A10BEC29F1290130831203139E
:1003E800A2070318A30A0030A30700302302323003
:1003F80003192202031C012A022ADB29080083169A
:1004080003139816181283120313981783160313ED
:100418001813181583160317871519308316031335
:1004280099009A01831203131816831603138C1666
:1004380008008316031788018901831603138501B1
:1004480086018801831203138501860188018B17B1
:100458000B1708000B11B230831203138100080038
:06046800103400340134E1
:08400000FF3FFF3FFF3FFF3FC0
:04400E00D420FF3F7C
:00000001FF
