:060000000A128A11122809
:10000800FE00030E83120313CD000408CE000A0875
:10001800CF007F08D0000A128A111C290A128A11FF
:1000280015280A128A11D6240A128A11D8000A122F
:100038008A11D7240A128A11D9000A128A11D824DF
:100048000A128A11DA008313203084003D300A1224
:100058008A11C8240A128A1183010A128A11732A82
:1000680083120313C8003E30C0004008C3000529AE
:10007800253049060319412842284E284908C0005E
:10008800480884004008831380000130C0004008FD
:10009800C8070529C4010130BD07FF303D078400AA
:1000A8000A128A11A5240A128A11C900C000C101C6
:1000B8004108003A0319612805294008003A031944
:1000C8001729643A03196C280D3A03196C28052975
:1000D8004308840083130008C600840A0008C70088
:1000E8000230C0004008C307C71F7B287C2885282A
:1000F8000330C0004008C404C609C709C60A03196A
:10010800C70AC901C90A4908C0004007013E84005E
:100118000A128A11A5240A128A11C1000A128A1128
:10012800A5240A128A11C20042084702031D9E280C
:10013800410846020318A128A228A328AD280130A7
:10014800C0004008C90705304906031DAC28AD2882
:100158008728440803390319B228B328BE282D304C
:10016800C000480884004008831380000130C000A4
:100178004008C8074908C0004008C500FC280A30E4
:10018800F8000030F9004508C0004007013E84002F
:100198000A128A11A5240A128A11F0000A128A1179
:1001A800A5240A128A11F1004708F3004608F20054
:1001B8000A128A112F230A128A117108FB0070088B
:1001C800FA000A128A11ED230A128A117808303EC1
:1001D80083120313C1004108C9004908C000480838
:1001E80084004008831380000130C0004008C8071D
:1001F800FF30C0004008C507450A031D042905292A
:10020800C3280130BD07FF303D0784000A128A1158
:10021800A5240A128A11C0004008C9004908031D14
:10022800162917293C2848088400831380010800F0
:100238000B1D1F2920293A290130CA004A08A7079F
:1002480004302706031D29292A29352926080319D8
:100258002E293029013031290030CA004A08A60069
:10026800A7010A128A11D0240A128A1183120313D1
:100278008C1E3F2940299029003018190130A1000F
:10028800003098180130A0001A08CA004A08A300D4
:100298000B30CA004A08BD002308CB00CC014B082C
:1002A800BE004C08BF0029300A128A1134200A12F5
:1002B8008A11831203139A0141302306031D65290D
:1002C80066299029003018190130A10000309818CB
:1002D8000130A000210C031C051003180514200C84
:1002E800031C8510031885141A08CA004A08A400BC
:1002F8000B30CA004A08BD002408CB00CC014B08CB
:10030800BE004C08BF0033300A128A1134200A128A
:100318008A11831203139A015008FF004F088A00BC
:100328004E0884004D0E8300FE0E7E0E09008316D3
:100338000313A0002008031DA229A329D42983128E
:1003480003135408803ED500550883160313A300F1
:10035800230883120313D50004300310D50CFF3E85
:10036800031DB1295508D600560883160313A100AA
:1003780023080F3983120313D50055088316031376
:10038800A20021080A128A118C240A128A118316E3
:10039800031322080A128A118C240A128A11092AC4
:1003A8002003031DD829D929092A831203135408C5
:1003B800C03ED500550883160313A30023088312F3
:1003C8000313D50004300310D50CFF3E031DE729A5
:1003D8005508D600560883160313A10023080F39C1
:1003E80083120313D500550883160313A2002108AE
:1003F8000A128A118C240A128A11831603132208FE
:100408000A128A118C240A128A1108003F2AF8302D
:10041800831603138105682A831603130108F83924
:1004280001388100682A831603130108F839023855
:100438008100682A831603130108F83903388100FC
:10044800682A831603130108F83904388100682ADA
:10045800831603130108F83905388100682A8316C2
:1004680003130108F83906388100682A0730831613
:1004780003138104682A831203135208003A0319EC
:10048800492A013A0319632A682A5108003A0319CC
:10049800682A023A03190B2A063A0319102A0C3A59
:1004A8000319172A183A03191E2A303A0319252A5C
:1004B800603A03192C2AC03A0319332A682A5108CA
:1004C800003A03193A2A682A831603138112811104
:1004D8008B160B11B23083120313810008000A1225
:1004E8008A11B8240A128A1101300A128A11732358
:1004F8000A128A11103083120313D1000030D2007F
:100508000A128A110A220A128A110A128A117224FC
:100518000A128A110A128A11D8220A128A1109307B
:1005280083120313D7005708D40000300A128A1127
:100538009B210A128A1129300A128A1127240A12C9
:100548008A113030831203132406031DAC2AAD2A06
:10055800BE2A0230D7005708D40000300A128A1188
:100568009B210A128A1133300A128A1127240A128F
:100578008A11932A31302406031DC32AC42A932AD8
:100588000230D7005708D40000300A128A119B2184
:100598000A128A1133300A128A1127240A128A1180
:1005A800932A0A128A11122800300A128A11522438
:1005B8000A128A11073083120313D5007C30D40045
:1005C800D40BE42AD50BE42A000003300A128A115E
:1005D8008C240A128A11F93083120313D400F42AE6
:1005E800D40BF32AF72A03300A128A118C240A1230
:1005F8008A11FE2A03300A128A118C240A128A11DF
:1006080002300A128A118C240A128A1102300A1244
:100618008A118C240A128A1108300A128A118C2431
:100628000A128A1100300A128A118C240A128A11BD
:100638000C300A128A118C240A128A1100300A120C
:100648008A118C240A128A1106300A128A118C2403
:100658000A128A110800F501F601700871040319DD
:10066800362B372B6E2BF701F70A452B0130031079
:10067800F00DF10DFF3E031D3B2B0130F400740813
:10068800F707F11F482B492B3A2B01300310F50DC2
:10069800F60DFF3E031D4A2B71087302031D562BEE
:1006A80070087202031C592B5A2B612B7008F20236
:1006B8007108031CF303F302751401300310F10CE5
:1006C800F00CFF3E031D622B0130F702031D6D2B5A
:1006D8006E2B492B7608F1007508F000080083128C
:1006E8000313D300982B831603130F088F39403850
:1006F8008F00AE2B831603130F088F3950388F00E5
:10070800AE2B831603130F088F3960388F00AE2B7A
:100718007030831603138F04AE2B831603130F0850
:100728008F3960388F00AE2B5308D100D2015208A0
:10073800003A0319A02B912B5108013A0319772B82
:10074800033A03197E2B063A0319852B0C3A031931
:100758008C2B912B0F14080083120313D500550816
:100768000F39D2005208D3005508F039D200520888
:10077800D40006155408D20004300310D20CFF3EF2
:10078800031DC12B52080A128A1152240A128A1117
:10079800831203138615023083120313D200D20B7F
:1007A800D32B000083120313861153080A128A11EF
:1007B80052240A128A1183120313861502308312F7
:1007C8000313D200D20BE62B000083120313861109
:1007D8000800780879040319F22BF32B222CFD0169
:1007E800FD0A012C01300310F80DF90DFF3E031D21
:1007F800F72B0130FC007C08FD07F91F042C052CA1
:10080800F62B79087B02031D0B2C78087A02031C4F
:100818000E2C0F2C152C7808FA027908031CFB0300
:10082800FB0201300310F90CF80CFF3E031D162CD7
:100838000130FD02031D212C222C052C7B08F90018
:100848007A08F800080083160313A200A001A1018A
:10085800442C831603132008220783120313D6009F
:100868005608840000080A128A11B0230A128A1155
:10087800013083160313A0070318A10A0030A1074B
:100888002008220783120313D60056088400831316
:100898000008031D502C512C2D2C08008312031323
:1008A800D100511C582C592C5B2C06165C2C0612B6
:1008B800D11C5F2C602C622C8616632C8612511D6D
:1008C800662C672C692C06176A2C0613D11D6D2C13
:1008D8006E2C702C8617712C861308008316031350
:1008E80098161812831203139817831603131813F4
:1008F80018158316031787151930831603139900E3
:100908009A01831203131816831603138C16080012
:1009180083120313D300061153080A128A115224B2
:100928000A128A11831203138615C7308312031320
:10093800D2009E2CD20B9D2CA12C8312031386115E
:10094800080004308A000408840A8207003401344D
:1009580000340A34003464340034E8340334103486
:100968002734253464340034831603178801890139
:1009780083160313850186018312031385018601FB
:1009880088018B170B17080064008001840A04068D
:10099800031900340406C92C0B11B2308312031357
:0A09A800810008001034003401340F
:08400000FF3FFF3FFF3FFF3FC0
:04400E00D420FF3F7C
:00000001FF
