:060000000A128A110C280F
:10000800FE00030EF5000A08F6000A128A11CF282E
:100018000A128A110F280A128A1156210A128A1105
:10002800F8000A128A1157210A128A11F9000A12D5
:100038008A1158210A128A11FA00F001F101F2011D
:10004800F30183010A128A1103295E28F830831606
:10005800031381058728831603130108F83901382B
:1000680081008728831603130108F83902388100B4
:100078008728831603130108F83903388100872875
:10008800831603130108F83904388100872883167A
:1000980003130108F83905388100872883160313EC
:1000A8000108F839063881008728073083160313BA
:1000B80081048728831203132108003A031968284A
:1000C800013A0319822887282008003A031987284B
:1000D800023A03192A28063A03192F280C3A031959
:1000E8003628183A03193D28303A03194428603A4B
:1000F80003194B28C03A0319522887282008003AC8
:1001080003195928872883160313811281118B1626
:100118000B11B2308312031381000800F700B528D1
:10012800831603130F088F3940388F00CD288316A4
:1001380003130F088F3950388F00CD288316031307
:100148000F088F3960388F00CD287030831603135D
:100158008F04CD28831603130F088F3960388F005A
:10016800CD28770883120313A000A1012108003AC3
:100178000319BF28AE282008013A03199428033A26
:1001880003199B28063A0319A2280C3A0319A9282F
:10019800AE280F1408000B1DD228D328ED280130F3
:1001A800F4007408F20704307206031DDC28DD2809
:1001B800E82871080319E128E3280130E428003011
:1001C800F4007408F100F2010A128A1150210A128F
:1001D8008A110B1CF028F128FC2883120313061837
:1001E800F628F728FA28F001F00AFB28F0010B108E
:1001F80076088A00750E8300FE0E7E0E09000A122C
:100208008A1129210A128A1101300A128A119220B0
:100218000A128A11103083120313A0000030A100C3
:100228000A128A1129200A128A11710883120313EB
:10023800A2002208F70070080A128A1140210A1247
:100248008A1119290A128A110C28831603178801A2
:10025800890101308316031386008113013095004C
:100268001614870188018312031386018701880108
:100278008B178B150B10080083120313A0002003A3
:10028800031D472948294E29770C031C071003181A
:1002980007144F29071008000B11B23083120313FB
:0A02A8008100080010340034013416
:08400000FF3FFF3FFF3FFF3FC0
:04400E00D420FF3F7C
:00000001FF
