:060000000A128A11122809
:10000800FE00030E83120313B6000408B7000A08A3
:10001800B8007F08B9000A128A119C2B0A128A11AB
:1000280015280A128A11FC270A128A11D3000A120B
:100038008A11FD270A128A11D4000A128A11FE2792
:100048000A128A11D5008313BB308400CF300A12FC
:100058008A151C270A128A113C30840053300A1270
:100068008A151C270A128A1183010A128A113C2850
:100078000A128A1544270A128A1101300A128A11B3
:1000880025270A128A11103083120313BA00003090
:10009800BB000A128A1147240A128A110A128A1509
:1000A8005E270A128A1183120313BA01BB0140307A
:1000B8000A128A11B0240A128A110A128A115F25BB
:1000C8000A128A1100300A128A1531270A128A1177
:1000D8000130831203133D02803003193C02031CD4
:1000E800762877288A28C201C20A17308316031394
:1000F800B9003908AC000130AD000030AE0049301D
:100108000A128A11C8210A128A11A32801303D0255
:10011800673003193C02031892289328A328C201C8
:10012800173083160313B9003908AC000030AD004E
:10013800AE0049300A128A11C8210A128A11023007
:1001480083160313B9003908A10000300A128A1176
:1001580008250A128A110B3083160313A300803076
:10016800A4000A128A11B6250A128A1101308312D4
:1001780003133D02D23003193C020318C428C528D2
:10018800FD2800303D02DE3003193C02031CCD2857
:10019800CE28FD28023083160313B9003908A100C0
:1001A80001300A128A1108250A128A111A30831698
:1001B8000313A3008030A4000A128A11B6250A127C
:1001C8008A11033083160313B9003908A1000130DE
:1001D8000A128A1108250A128A11C53083160313D8
:1001E800A3000030A4000A128A11B6250A128A1147
:1001F800552901303D02CD3003193C02031C052965
:1002080006293529023083160313B9003908A100DD
:1002180001300A128A1108250A128A111A30831627
:100228000313A3008030A4000A128A11B6250A120B
:100238008A11033083160313B9003908A10001306D
:100248000A128A1108250A128A1114308316031318
:10025800A3008030A4000A128A11B6250A128A1156
:10026800552900303D02DC3003193C0203183D29B2
:100278003E295529023083160313B9003908A10015
:1002880001300A128A1108250A128A1113308316BE
:100298000313A3008030A4000A128A11B6250A129B
:1002A8008A11053083160313B9003908A1000130FB
:1002B8000A128A1108250A128A111C3083160313A0
:1002C800A3008030A4000A128A11B6250A128A11E6
:1002D8001E3083120313BA008030BB000A128A153D
:1002E800DA270A128A11A33083160313BA0054308E
:1002F800B900B90B7D29BA0B7D290000493083125A
:100308000313BA000030BB000A128A15DA270A1252
:100318008A11A33083160313BA005430B900B90BFD
:100328009329BA0B93290000203083120313BA00D3
:100338008030BB000A128A15DA270A128A11A33004
:1003480083160313BA005430B900B90BA929BA0BA4
:10035800A9290000BB3083120313BA000030BB0088
:100368000A128A15DA270A128A11A3308316031390
:10037800BA005430B900B90BBF29BA0BBF29000025
:1003880066280A128A11122883160313B700AD30A3
:10039800AF002F08B2009B2A253038060319D5294B
:1003A800D629E2293808AF00370884002F088313BC
:1003B80080000130AF002F08B7079B2AB301013036
:1003C800AC07FF302C0784000A128A11AA270A12E8
:1003D8008A11B800AF00B0013008003A0319F529B6
:1003E8009B2A2F08003A0319AD2A643A0319002AF8
:1003F8000D3A0319002A9B2A320884008313000847
:10040800B500840A0008B6000230AF002F08B20712
:10041800B61F0F2A102A192A0330AF002F08B30479
:10042800B509B609B50A0319B60AB801B80A3808F1
:10043800AF002F07013E84000A128A11AA270A1268
:100448008A11B0000A128A11AA270A128A11B10069
:1004580031083602031D322A300835020318352ABE
:10046800362A372A412A0130AF002F08B80705304D
:100478003806031D402A412A1B2A33080339031969
:10048800462A472A522A2D30AF00370884002F0801
:10049800831380000130AF002F08B7073808AF007A
:1004A8002F08B400922A0A30A7000030A8003408A8
:1004B800AF002F07013E84000A128A11AA270A12E8
:1004C8008A11A0000A128A11AA270A128A11A10009
:1004D8003608A3003508A2000A128A1157260A1204
:1004E8008A11831603132108AA002008A9000A12FA
:1004F8008A11E5260A128A11831603132708303E4B
:10050800B0003008B8003808AF00370884002F085A
:10051800831380000130AF002F08B707FF30AF000A
:100528002F08B407340A031D9A2A9B2A572A013038
:10053800AC07FF302C0784000A128A11AA270A1276
:100548008A11AF002F08B8003808031DAC2AAD2A5D
:10055800D02937088400831380010800831203130D
:10056800B1002730A9002908AC00852B25303206B8
:100578000319BF2AC02ACC2A3208A90031088400EE
:100588002908831380000130A9002908B107852BA9
:10059800AD010130A607FF30260784000A128A1130
:1005A800AA270A128A11B200A900AA012A08003A49
:1005B8000319DF2A852B2908003A0319972B643A77
:1005C8000319EA2A0D3A0319EA2A852B2C08840014
:1005D80083130008AF00840A0008B0000230A900A5
:1005E8002908AC07B01FF92AFA2A032B0330A900FF
:1005F8002908AD04AF09B009AF0A0319B00AB2015E
:10060800B20A3208A9002907013E84000A128A1199
:10061800AA270A128A11AA000A128A11AA270A12FC
:100628008A11AB002B083002031D1C2B2A082F024D
:1006380003181F2B202B212B2B2B0130A900290855
:10064800B20705303206031D2A2B2B2B052B2D084C
:1006580003390319302B312B3C2B2D30A9003108DD
:1006680084002908831380000130A9002908B107F4
:100678003208A9002908AE007C2B0A30A0000030FF
:10068800A1002E08A9002907013E84000A128A1138
:10069800AA270A128A11F6000A128A11AA270A1230
:1006A8008A11F7003008F9002F08F8000A128A1199
:1006B800A1260A128A11770883120313A300760869
:1006C800A2000A128A1164270A128A1183120313DC
:1006D8002008303EAA002A08B2003208A9003108D2
:1006E80084002908831380000130A9002908B10774
:1006F800FF30A9002908AE072E0A031D842B852B7D
:10070800412B0130A607FF30260784000A128A1100
:10071800AA270A128A11A9002908B2003208031D63
:10072800962B972BBA2A310884008313800108007E
:100738000B1D9F2BA02BC32B0130B3003308C5071B
:100748000130B3003308C70704304706031DAD2B3B
:10075800AE2BBE2B46080319B22BB42B0130B52B98
:100768000030B3003308C600460C031C08130318F6
:100778000817C7010A128A1516270A128A11831246
:1007880003130C1FC82BC92B082C1F0CB300330CE8
:100798000F39003A031DD12BD22B052C0A128A15CA
:1007A80024270A128A11710883120313BD007008E6
:1007B800BC003D08A1003C08A000DB30A2000030CE
:1007C800A300DA30A4000130A5000A128A11D1274B
:1007D8000A128A11831203132008B3003308C300D6
:1007E8001730B3003308A6004308B400B501340835
:1007F800A7003508A800C5300A128A11B2220A12C9
:100808008A11831203130C130B1C0B2C0C2C3A2C7F
:1008180006180F2C102C392C061C132C142C102CF9
:1008280041080319182C1A2C01301B2C0030B30076
:100838003308C100410C031C8813031888174108AA
:10084800023EB3003308C0001730B3003308A600D7
:100858004008B400B5013408A7003508A800BB302B
:100868000A128A11B2220A128A110B108312031378
:100878003908FF0038088A0037088400360E8300DC
:10088800FE0E7E0E09007C2CF830831603138105BA
:10089800A52C831603130108F83901388100A52C0B
:1008A800831603130108F83902388100A52C831632
:1008B80003130108F83903388100A52C83160313A4
:1008C8000108F83904388100A52C831603130108A0
:1008D800F83905388100A52C831603130108F83967
:1008E80006388100A52C0730831603138104A52C34
:1008F800831203133B08003A0319862C013A0319A3
:10090800A02CA52C3A08003A0319A52C023A031981
:10091800482C063A03194D2C0C3A0319542C183A52
:1009280003195B2C303A0319622C603A0319692CBD
:10093800C03A0319702CA52C3A08003A0319772CF1
:10094800A52C83160313811281118B160B11B2305B
:10095800831203138100080083160313A200831275
:1009680003130C13831603130C17831203133A0C87
:1009780083160313031C1F1203181F168312031375
:100988003B0C83160313031C9F1203189F169F1713
:10099800831203131F14023083160313A000A00B45
:1009A800D32C0000EF2C3F30831203139F05072D33
:1009B800831203131F083F3940389F00072D831205
:1009C80003131F083F3980389F00072DC03083125A
:1009D80003139F04072D831603132208A000A10107
:1009E8002108003A0319F92C072D2008023A0319A7
:1009F800D72C0A3A0319DC2C283A0319E32C603A5D
:100A08000319EA2C072D080083160313A4002408F1
:100A1800031D0F2D102D352D2108803EA200220820
:100A2800A7002708A20004300310A20CFF3E031DF4
:100A3800182D2208A3002308A50027080F39A200B3
:100A48002208A60025080A128A1578270A128A1190
:100A58008316031326080A128A1578270A128A11A0
:100A68005E2D2403031D392D3A2D5E2D2108C03E2D
:100A7800A2002208A7002708A20004300310A20C35
:100A8800FF3E031D422D2208A3002308A5002708C6
:100A98000F39A2002208A60025080A128A1578270D
:100AA8000A128A118316031326080A128A15782750
:100AB8000A128A11080000300A128A1595270A12AC
:100AC8008A11073083160313A2007C30A100A10B02
:100AD8006B2DA20B6B2D000003300A128A157827A4
:100AE8000A128A11F93083160313A1007B2DA10B7A
:100AF8007A2D7E2D03300A128A1578270A128A1158
:100B0800852D03300A128A1578270A128A110230B5
:100B18000A128A1578270A128A1102300A128A15CF
:100B280078270A128A1108300A128A1578270A12B9
:100B38008A1100300A128A1578270A128A110C3095
:100B48000A128A1578270A128A1100300A128A15A1
:100B580078270A128A1106300A128A1578270A128B
:100B68008A11080083160313A801A901E72D83162B
:100B7800031328082307A6002408A5000318A50ABC
:100B8800A81FC72DA503831603132508A700270848
:100B980083120313FF0083160313260884008312AD
:100BA80003130A128A11A0270A128A110A128A113B
:100BB8000A260A128A11013083160313A80703189C
:100BC800A90A0030A90728082307A6002408A500B9
:100BD8000318A50AA81FF12DA503831603132508DA
:100BE800A700270883120313FF00831603132608A0
:100BF8008400831203130A128A11A0270A128A1189
:100C0800003A031D082E092EBB2D08008316031376
:100C1800A20022080F3983120313BB003B08831676
:100C28000313A0002208F03983120313BB003B080A
:100C380083160313A10083120313061583160313E7
:100C4800210883120313BB0004300310BB0CFF3EC2
:100C5800031D292E3B080A128A1595270A128A11A4
:100C6800831203138615023083120313BB00BB0BD8
:100C78003B2E0000831203138611831603132008EA
:100C88000A128A1595270A128A11831203138615E8
:100C9800023083120313BB00BB0B502E00008312DB
:100CA80003138611080083160313A501A601200863
:100CB80021040319602E612E9C2EA401A40A732E10
:100CC80001300310A00DA10DFF3E031D652E01305C
:100CD80083120313BA003A0883160313A407A11F4B
:100CE800762E772E642E01300310A50DA60DFF3E3B
:100CF800031D782E21082302031D842E20082202BA
:100D0800031C872E882E8F2E2008A2022108031C80
:100D1800A303A302251401300310A10CA00CFF3E6D
:100D2800031D902E0130A402031D9B2E9C2E772EAE
:100D38002608A1002508A0000800FB01FC01760890
:100D480077040319A82EA92EE02EFD01FD0AB72E5F
:100D580001300310F60DF70DFF3E031DAD2E0130D7
:100D6800FA007A08FD07F71FBA2EBB2EAC2E013009
:100D78000310FB0DFC0DFF3E031DBC2E7708790206
:100D8800031DC82E76087802031CCB2ECC2ED32E3A
:100D98007608F8027708031CF903F9027B1401307E
:100DA8000310F70CF60CFF3E031DD42E0130FD0294
:100DB800031DDF2EE02EBB2E7C08F7007B08F60013
:100DC800080083160313270828040319EC2EED2EB8
:100DD800202FAB01AB0AFF2E01300310A70DA80D81
:100DE800FF3E031DF12E013083120313BB003B08A5
:100DF80083160313AB07A81F022F032FF02E280812
:100E08002A02031D092F27082902031C0C2F0D2F66
:100E1800132F2708A9022808031CAA03AA020130D5
:100E28000310A80CA70CFF3E031D142F0130AB02C2
:100E3800031D1F2F202F032F2A08A8002908A70009
:100E4800080083160313A0004A2F831603130F0804
:100E58008F3940388F00622F831603130F088F399C
:100E680050388F00622F831603130F088F396038AC
:100E78008F00622F7030831603138F04622F83163E
:100E880003130F088F3960388F00622F20088312F0
:100E98000313BA00BB013B08003A0319542F432F30
:100EA8003A08013A0319292F033A0319302F063A51
:100EB8000319372F0C3A03193E2F432F0F1408003C
:100EC800831203132008210403196B2F6C2F9B2F07
:100ED800A501A50A7A2F01300310A00DA10DFF3E30
:100EE800031D702F0130A4002408A507A11F7D2F22
:100EF8007E2F6F2F21082302031D842F2008220232
:100F0800031C872F882F8E2F2008A2022108031C7C
:100F1800A303A30201300310A10CA00CFF3E031D84
:100F28008F2F0130A502031D9A2F9B2F7E2F230898
:100F3800A1002208A0000800FF1BAA2F83137F1816
:100F480083170008840A0319FF0A080007308A007B
:100F58000408840A82070034013400340A34003457
:100F680064340034E8340334103427344834753496
:100F78006D3465346434613464340034313430346D
:100F880030340034253464340034203400342534BB
:100F980000344134003442340034831203132208ED
:100FA8002402F6002308031C230A2502F700200860
:100FB8002402F0002108031C210A2502F1006430F4
:100FC800F2000030F3000A128A15B5270A128A11B6
:100FD8007108F9007008F8000A128A11A1260A128D
:100FE8008A11770883120313A1007608A00008006D
:060FF80010340034013446
:101E2C000B11B2308312031381000800640080018F
:101E3C00840A04060319003404061D2F83120313AD
:101E4C009F18292F2A2F242F1E08F1008316031305
:101E5C001E08F000080083120313BB003B08BA00F5
:101E6C00BA0EBA0DBA0D1F083A063F393A069F0052
:101E7C009F18412F422F432F9F14080001308316C7
:101E8C000317880089010130831603138500013084
:101E9C0086008113013095001614880183120313F8
:101EAC008501860188018B170B178B150B10080009
:101EBC00831603139816181283120313981783169C
:101ECC000313181318158316031787151930831667
:101EDC00031399009A018312031318168316031324
:101EEC008C16080083160313A0008312031306112B
:101EFC008316031320080A128A1595270A128A15CD
:101F0C00831203138615C73083120313BB008E2F65
:101F1C00BB0B8D2F912F8312031386110800831294
:101F2C000313BA003A1C9B2F9C2F9E2F06169F2F33
:101F3C000612BA1CA22FA32FA52F8616A62F861227
:101F4C003A1DA92FAA2FAC2F0617AD2F0613BA1DB9
:101F5C00B02FB12FB32F8617B42F86130800F401BE
:101F6C00F501701CBA2FBB2FC12F7208F407031890
:101F7C00F50A7308F50701300310F20DF30DFF3E5F
:101F8C00031DC22F01300310F10CF00CFF3E031D9A
:101F9C00C92F70087104031DD42FD52FB72F7508C6
:101FAC00F1007408F0000800EF2F0C1EDE2FDF2F5D
:101FBC00DB2F3B08FF003A0884000A128A11A02785
:101FCC000A128A1599000130BA070318BB0A0030AF
:101FDC00BB07831203133B08FF003A0884000A1264
:101FEC008A11A0270A128A15003A031DFE2FFF2F13
:041FFC00DB2F0800CF
:08400000FF3FFF3FFF3FFF3FC0
:04400E00D420FF3F7C
:00000001FF
