:060000000A128A11122809
:10000800FE00030E83120313B8000408B9000A089F
:10001800BA007F08BB000A128A11B12E0A128A118F
:1000280015280A128A11FC270A128A11D5000A1209
:100038008A11FD270A128A11D6000A128A11FE2790
:100048000A128A11D7008317A1308400AB300A1234
:100058008A15A5200A128A118313A0308400E23081
:100068000A128A15A5200A128A113C3084005530DC
:100078000A128A15A5200A128A1183010A128A1106
:1000880045280A128A1548220A128A1101300A12D2
:100098008A15CB220A128A11103083160313E20044
:1000A8000030E3000A128A15D5250A128A110A12AD
:1000B8008A1569210A128A1183160313E201E301E2
:1000C80040300A128A1583240A128A110A128A15E4
:1000D80027250A128A11003083160317930001306E
:1000E8009200C1309100383090000A128A15F72327
:1000F8000A128A1100300A128A1550210A128A112E
:100108000A128A15B6200A128A1149308316031377
:10011800E2000030E3000A128A15C8200A128A1188
:10012800013083160313E2000030E3000A128A1537
:10013800C8200A128A11183083160313E20000300F
:10014800E3000A128A15C8200A128A110A128A15AF
:10015800AD200A128A11913083160313E200003091
:10016800E3000A128A15C8200A128A110030831681
:100178000313E200E3000A128A159D220A128A116B
:1001880083160313630883120313C3008316031330
:10019800620883120313C2000A128A15BF200A12CA
:1001A8008A11213083160317A00075309F009F0B1A
:1001B800DB28A00BDB28E0280B30831603179F00F1
:1001C8001F08900083120313430883160317920035
:1001D800831203134208831603179100C4300A12CE
:1001E8008A11BF240A128A110A128A15B6200A1225
:1001F8008A11D03083160313E2000030E3000A129C
:100208008A15C8200A128A11003083160313E200E7
:10021800E3000A128A15C8200A128A110A128A15DE
:10022800AD200A128A11D13083160313E200003080
:10023800E3000A128A15C8200A128A1101308316AF
:100248000313E2000030E3000A128A159D220A1205
:100258008A1183160313630883120313C1008316DC
:100268000313620883120313C000013083160313BB
:10027800E2000030E3000A128A159D220A128A1150
:1002880083160313630883120313BF008316031333
:10029800620883120313BE00003083160313E200C2
:1002A800E3000A128A159D220A128A118316031383
:1002B800630883120313BD008316031362088312B5
:1002C8000313BC000A128A15BF200A128A112130B2
:1002D80083160317A00075309F009F0B7129A00B90
:1002E800712976298312031340080A128A1583217B
:1002F8000A128A11831603179F00A0011F08831290
:100308000313C00083160317200883120313C100C8
:100318003E080A128A1583210A128A1183160317C6
:100328009F00A0011F0883120313BE008316031742
:10033800200883120313BF003C080A128A15832180
:100348000A128A11831603179F00A0011F0883123F
:100358000313BC0083160317200883120313BD0080
:100368002730831603179F001F089000831203137A
:10037800410883160317920083120313400883165B
:1003880003179100BA300A128A11BF240A128A117F
:100398002730831603179F001F089000831203134A
:1003A8003F08831603179200831203133E0883162F
:1003B80003179100B0300A128A11BF240A128A1159
:1003C8002730831603179F001F089000831203131A
:1003D8003D08831603179200831203133C08831603
:1003E80003179100A6300A128A11BF240A128A1133
:1003F8000130831203134702803003194602031C9D
:10040800062A072A202A3130831603179F001F085F
:1004180083120313CE003730831603179F001F087B
:1004280090003130910000309200CE300A128A11CB
:10043800BF240A128A11412A013047026730031982
:1004480046020318282A292A412A3030831603171E
:100458009F001F0883120313CE003730831603173B
:100468009F001F0890003030910000309200CE307D
:100478000A128A11BF240A128A11831203134D0823
:10048800031D472A482A512A3230831603179F0032
:100498001F0883120313CB005E2A4D03031D552A40
:1004A800562A5E2A3330831603179F001F088312CB
:1004B8000313CB00003043021A3003194202031819
:1004C800662A672A762A420A4304031D6C2A6D2A83
:1004D800762A3430831603179F001F0883120313EC
:1004E800CA00902A003043021B3003194202031C41
:1004F8007E2A7F2A902A00304302203003194202C4
:100508000318872A882A902A3530831603179F00F4
:100518001F0883120313CA004C08031D942A952A46
:100528003D2C83160313E50100300A128A157E2537
:100538000A128A111D3083160313E7008030E80081
:100548000A128A15D3240A128A110130831203135E
:100558004702D230031946020318B32AB42AE72AFD
:1005680000304702DE3003194602031CBC2ABD2AAC
:10057800E72A83160313E50101300A128A157E253E
:100588000A128A110F3083160313E7008030E8003F
:100598000A128A15D3240A128A1183160313E50155
:1005A800E50A01300A128A157E250A128A11D83006
:1005B80083160313E7000030E8000A128A15D324D3
:1005C8000A128A11372B01304702CD30031946022F
:1005D800031CEF2AF02A1A2B83160313E5010130B6
:1005E8000A128A157E250A128A110F308316031300
:1005F800E7008030E8000A128A15D3240A128A110B
:1006080083160313E501E50A01300A128A157E25CF
:100618000A128A112D3083160313E7008030E80090
:100628000A128A15D3240A128A11372B003047027E
:10063800DC30031946020318222B232B372B831691
:100648000313E50101300A128A157E250A128A1160
:100658002C3083160313E7008030E8000A128A154D
:10066800D3240A128A110330831603179F001F0828
:1006780083160313E50001300A128A157E250A1233
:100688008A113D3083160313E7008030E8000A1210
:100698008A15D3240A128A110530831603179F007E
:1006A8001F0883160313E50000300A128A157E25F9
:1006B8000A128A11223083160313E7008030E800FB
:1006C8000A128A15D3240A128A11831203134D08B9
:1006D800031D6F2B702B8A2B0530831603179F0081
:1006E8001F0883160313E50001300A128A157E25B8
:1006F8000A128A11303083160313E7008030E800AD
:100708000A128A15D3240A128A11C12B4D03031D1C
:100718008E2B8F2BC12B0530831603179F001F08C4
:1007280083160313E50001300A128A157E250A1282
:100738008A110F3083160313E7008030E8000A128D
:100748008A15D3240A128A110630831603179F00CC
:100758001F0883160313E50001300A128A157E2547
:100768000A128A113A3083160313E7008030E80032
:100778000A128A15D3240A128A110A30831603171B
:100788009F001F0883160313E50000300A128A151C
:100798007E250A128A11173083160313E70080306A
:1007A800E8000A128A15D3240A128A110C3083161B
:1007B80003179F001F0883160313E50001300A1270
:1007C8008A157E250A128A110F3083160313E70053
:1007D8008030E8000A128A15D3240A128A1183127B
:1007E8000313420A43040319FA2BFB2B152C0A3076
:1007F800831603179F001F0883160313E5000130B3
:100808000A128A157E250A128A11C4308316031328
:10081800E7000030E8000A128A15D3240A128A1168
:10082800A32C420A4304031D1A2C1B2CA32C34307E
:10083800831603179F001F0883120313CA000A3088
:10084800831603179F001F0883160313E500013062
:100858000A128A157E250A128A1134308316031368
:10086800E7008030E8000A128A15D3240A128A1198
:10087800A32CCC01CC0A0630831603179F001F084F
:1008880083160313E50000300A128A157E250A1222
:100898008A11113083160313E7008030E8000A122A
:1008A8008A15D3240A128A110630831603179F006B
:1008B8001F0883160313E50001300A128A157E25E6
:1008C8000A128A11A63083160313E7000030E800E5
:1008D8000A128A15D3240A128A11083083160317BC
:1008E8009F001F0883160313E50001300A128A15BA
:1008F8007E250A128A11153083160313E70080300B
:10090800E8000A128A15D3240A128A1109308316BC
:1009180003179F001F0883160313E50001300A120E
:100928008A157E250A128A11B03083160313E70050
:100938000030E8000A128A15D3240A128A11831299
:1009480003134E080A128A15BC210A128A1183124F
:1009580003134B080A128A15BC210A128A11831242
:1009680003134A080A128A15BC210A128A117E2822
:100978000A128A111228831603179E0091309300D9
:10098800130896009A2E25301D060319CC2CCD2C61
:10099800D92C1D0893001E088400130883138000B7
:1009A8000130930013089E079A2E9B019C019A011F
:1009B800E22C1A15013093001308900710088400E0
:1009C8000A128A150A200A128A119300940114083F
:1009D800003A0319F02CF52C1308303A0319DD2CD2
:1009E800F52C100884000A128A150A200A128A11A6
:1009F8000A128A150D210A128A11031C042D052DCD
:100A0800532D831603179B019C010A308316031389
:100A1800E2000030E300831603171C088316031353
:100A2800E500831603171B0883160313E4000A1254
:100A38008A1521220A128A11831603136308831662
:100A480003179C00831603136208831603179B0081
:100A5800100884000A128A150A200A128A11D03E48
:100A68009300FF3003180030940013089B07031805
:100A78009C0A14089C07013093001308900710087B
:100A880084000A128A150A200A128A110A128A1583
:100A98000D210A128A110318522D532D092D0130E8
:100AA800831603179007FF30100784000A128A156F
:100AB8000A200A128A119D00930094011408003A32
:100AC8000319672D9A2E1308003A0319AC2E643ABD
:100AD8000319722D0D3A0319722D9A2E16088400E7
:100AE800831700089800840A0008990002309300D0
:100AF80013089607991F812D822D8B2D03309300A3
:100B080013089A0498099909980A0319990A9D01E2
:100B18009D0A1D0893001307013E84000A128A15D6
:100B28000A200A128A1194000A128A150A200A1247
:100B38008A11950015081902031DA42D140818021E
:100B48000318A72DA82DA92DB32D01309300130844
:100B58009D0705301D06031DB22DB32D8D2D1B08D5
:100B68001C040319B82DB92DC52D1A08033903190A
:100B7800BE2DBF2DC52DFF309B0703189C0AFF30E3
:100B88009C071C08803A803C031DCC2D1B081D02C5
:100B98000318CF2DD02DDC2D831603171D089300C5
:100BA800940113089B021408031C9C039C02E02D6B
:100BB800831603179B019C011A1DE32DE42D132EA8
:100BC8001A0803390319E92DEA2DF52D2D30930064
:100BD8001E08840013088313800001309300130853
:100BE8009E071B081C040319FA2DFB2D412E3030DB
:100BF80093001E08840013088313800001309300BB
:100C080013089E07FF309B0703189C0AFF309C07B8
:100C18001B081C04031D112E122EFB2D412E1B0830
:100C28001C040319182E192E302E203093001E088C
:100C380084001308831380000130930013089E0773
:100C4800FF309B0703189C0AFF309C071B081C04F5
:100C5800031D2F2E302E192E1A0803390319352E8D
:100C6800362E412E2D3093001E088400130883135E
:100C780080000130930013089E071D089300130895
:100C88009700912E0A3083160313EA000030EB0018
:100C980083160317170893001307013E84000A12EE
:100CA8008A150A200A128A1183160313E2000A120F
:100CB8008A150A200A128A11E300831603171908F5
:100CC80083160313E5008316031718088316031306
:100CD800E4000A128A153D240A128A1183160313A6
:100CE8006308ED006208EC000A128A11C0270A1294
:100CF8008A11831603136A08303E8316031794007B
:100D080014089D001D0893001E088400130883130F
:100D180080000130930013089E07FF3093001308EA
:100D28009707170A031D992E9A2E462E0130900711
:100D3800FF30100784000A128A150A200A128A1145
:100D4800930013089D001D08031DAB2EAC2EC72C65
:100D58001E0884008313800108000B1DB42EB52ED5
:100D6800D82E0130B5003508D1070130B500350857
:100D7800D30704305306031DC22EC32ED32E5208A8
:100D88000319C72EC92E0130CA2E0030B500350808
:100D9800D200520C031C081303180817D3010A12B7
:100DA8008A159F200A128A11831203130C1FDD2E45
:100DB800DE2E1D2F1F0CB500350C0F39003A031D10
:100DC800E62EE72E1A2F0A128A15E1200A128A1136
:100DD800710883120313C7007008C6004708A100F2
:100DE8004608A000DB30A2000030A300DA30A400DF
:100DF8000130A5000A128A1572220A128A1183127A
:100E080003132008B5003508CF003730B500350882
:100E1800A6004F08B600B7013608A7003708A80093
:100E2800D8300A128A152C260A128A118312031343
:100E38000C130B1C202F212F4D2F0618242F252F84
:100E4800332F061C282F292F252F4D0803192D2F46
:100E58002F2F0130302F0030B5003508CD0086180F
:100E6800362F372F4C2F861C3A2F3B2F372F0A123D
:100E78008A15D4200A128A11831203134C08031905
:100E8800462F482F0130492F0030B5003508CC00D7
:100E98000B103B08FF003A088A0039088400380E16
:100EA8008300FE0E7E0E0900003083160313EE0049
:100EB8000030ED000030EC000030EB006508640401
:100EC800630462040319692F6A2FB72FEF01EF0A31
:100ED8007A2F0130EA000310E20DE30DE40DE50D71
:100EE800EA0B6F2F0130EA006A08EF07E51F7D2F34
:100EF8007E2F6D2F0130EA000310EB0DEC0DED0D88
:100F0800EE0DEA0B802F65086902031D952F640812
:100F18006802031D952F63086702031D952F620859
:100F28006602031C982F992FA82F6208E60263080F
:100F3800031C630FE7026408031C640FE8026508DA
:100F4800031C650FE9026B1401300310E50CE40C77
:100F5800E30CE20CFF3E031DA92F0130EF02031D35
:100F6800B62FB72F7E2F6E08E5006D08E4006C08D9
:100F7800E3006B08E2000800831603136A086B0499
:100F88000319C72FC82FF72FEF01EF0AD62F01300B
:100F98000310EA0DEB0DFF3E031DCC2F0130EE00D0
:100FA8006E08EF07EB1FD92FDA2FCB2F6B086D02D6
:100FB800031DE02F6A086C02031CE32FE42FEA2FBD
:100FC8006A08EC026B08031CED03ED020130031004
:100FD800EB0CEA0CFF3E031DEB2F0130EF02031D63
:100FE800F62FF72FDA2F6D08EB006C08EA000800DF
:060FF80010340034013446
:10100000FF1B0A2883137F1883170008840A03191B
:10101000FF0A080008308A000408840A82070034A6
:10102000013400340A34003464340034E8340334C6
:1010300010342734253430343234643420340034CE
:1010400048346F34723461343A3400345434653483
:101050006D3470343A340034483475346D343A3475
:10106000003442346F3474343A340034253430342C
:1010700032346434003431343034303400344F345A
:101080006634663400343234353400342534643404
:0C10900000344F346E340034253400343A
:10113E000B11B2308312031381000800640080018A
:10114E00840A0406031900340406A6280A128A1516
:10115E00EE200A128A1583160313911408000A1240
:10116E008A15EE200A128A1583160313111408002D
:10117E000A128A15EE200A128A1583160313111508
:10118E0008000A128A15EE200A128A158316031316
:10119E006208831203139300080000300A128A15A6
:1011AE0038210A128A1501300A128A1538210A12BC
:1011BE008A150800831203139F18E628E728E128F2
:1011CE001E08F100831603131E08F0000800831694
:1011DE0003131419F328F428EE2811081F39031DE0
:1011EE00F928FA28EE280800F100F0013A307102D1
:1011FE000318022903290B2930307102031C082918
:10120E0009290B29F001F00A700C0800831603134C
:10121E00E300E2013A3063020318162917291F2949
:10122E0030306302031C1C291D291F29E201E20A2A
:10123E00620C080083160313E500E401651C2829DF
:10124E0029292D296208E3006308E4070310E20D43
:10125E000310E50C6508031D352936292529640878
:10126E000800F20083120313061172080A128A157F
:10127E00DA210A128A15831203138615C730F1007C
:10128E004829F10B47294B294C2983120313861148
:10129E00080083160313E3006308E200E20EE20D7A
:1012AE00E20D831203131F088316031362063F39E0
:1012BE006206831203139F009F1866296729682907
:1012CE009F14080083160313981618128312031323
:1012DE0098178316031318131815831603178715FB
:1012EE0019308316031399009A01831203131816EB
:1012FE00831603138C16080083160313E9000F30B0
:10130E006905E6000A30E7006708E2006908E800B0
:10131E0004300310E80CFF3E031D902968080A12E2
:10132E008A1521210A128A158316031366070800EF
:10133E0083160313E400831203130611831603139B
:10134E0064080A128A15FE220A128A1583120313E2
:10135E008615C73083160313E300B529E30BB429B2
:10136E00B829831203138611080083160313E500B0
:10137E00023083160313E4004530E300A930E20087
:10138E00E20BC729E30BC729E40BC729831203130A
:10139E000C1ED229D329D92983160313650883126B
:1013AE00031399000800F000701CDE29DF29E329E1
:1013BE00831203130616E629831203130612F01C7A
:1013CE00E929EA29EC298616ED298612701DF029E5
:1013DE00F129F3290617F4290613F01DF729F82928
:1013EE00FA298617FB2986130800F401F501701CF3
:1013FE00012A022A082A7208F4070318F50A73084C
:10140E00F50701300310F20DF30DFF3E031D092AFF
:10141E0001300310F10CF00CFF3E031D102A700872
:10142E007104031D1B2A1C2AFE297508F10074087D
:10143E00F000080083160313E601E701621C282A58
:10144E00292A2F2A6408E6070318E70A6508E70722
:10145E0001300310E40DE50DFF3E031D302A01306F
:10146E000310E30CE20CFF3E031D372A62086304EF
:10147E00031D422A432A252A6708E3006608E20074
:10148E000800013083160317880089010130831686
:10149E000313850003308600811303309500161464
:1014AE00961487150716880183120313850186018A
:1014BE0088010130831603139300941783120313CC
:1014CE001408F0390838940094168C118B170B17EA
:1014DE008B150B1008008312031322082402F6004A
:1014EE002308031C230A2502F70020082402F0001B
:1014FE002108031C210A2502F1006430F20000309D
:10150E00F3000A128A15FC210A128A157108F900D5
:10151E007008F8000A128A15B3230A128A15770882
:10152E0083120313A1007608A00008000A128A1580
:10153E00EE200A128A158316031391150A128A15C4
:10154E00EE200A128A15831203131308831603134F
:10155E00E400E5016408E6006508E7000A128A1552
:10156E00EE200A128A158316031362036304031D09
:10157E00C12AC22AC42A9112C52A911611166708C9
:10158E00E3006608E200080083160313E400E62A6F
:10159E000F088F3940388F00FC2A0F088F395038CA
:1015AE008F00FC2A0F088F3960388F00FC2A7030AC
:1015BE008F04FC2A0F088F3960388F00FC2A6408CC
:1015CE00E200E3016308003A0319EE2AE12A6208F9
:1015DE00013A0319CF2A033A0319D42A063A0319FA
:1015EE00D92A0C3A0319DE2AE12A0F1408008316B1
:1015FE000313E200621C042B052B092B8312031329
:10160E0006160C2B83120313061283160313E21C09
:10161E00112B122B162B831203138616192B8312E2
:10162E000313861283160313621D1E2B1F2B232BEF
:10163E00831203130617262B831203130613831626
:10164E000313E21D2B2B2C2B302B83120313861727
:10165E00332B8312031386130800831203132008FF
:10166E00210403193B2B3C2B6B2BA501A50A4A2BFE
:10167E0001300310A00DA10DFF3E031D402B0130C4
:10168E00A4002408A507A11F4D2B4E2B3F2B21088C
:10169E002302031D542B20082202031C572B582B08
:1016AE005E2B2008A2022108031CA303A302013013
:1016BE000310A10CA00CFF3E031D5F2B0130A502F1
:1016CE00031D6A2B6B2B4E2B2308A1002208A000B2
:1016DE00080083160313E60066080F39E30063085B
:1016EE00E4006608F039E3006308E5008312031393
:1016FE000615831603136508E30004300310E30C8C
:10170E00FF3E031D852B63080A128A15FE220A125C
:10171E008A15831203138615023083160313E30012
:10172E00E30B972B0000831203138611831603130A
:10173E0064080A128A15FE220A128A1583120313EE
:10174E008615023083160313E300E30BAC2B000067
:10175E008312031386110800FB01FC01760877043F
:10176E000319BA2BBB2BF22BFD01FD0AC92B01303D
:10177E000310F60DF70DFF3E031DBF2B0130FA00CF
:10178E007A08FD07F71FCC2BCD2BBE2B0130031093
:10179E00FB0DFC0DFF3E031DCE2B77087902031DBA
:1017AE00DA2B76087802031CDD2BDE2BE52B760870
:1017BE00F8027708031CF903F9027B1401300310B9
:1017CE00F70CF60CFF3E031DE62B0130FD02031D48
:1017DE00F12BF22BCD2B7C08F7007B08F6000800CE
:1017EE00283083120313940083160313910183167A
:1017FE00031710089400110895001208960013089C
:10180E00970002300310940D950D960D970DFF3E27
:10181E00031D092C170883160313E50083160317FF
:10182E00160883160313E400831603171508831690
:10183E000313E30083160317140883160313E20041
:10184E000030E9007A30E8001230E7000030E600A0
:10185E000A128A1158270A128A1583160313620870
:10186E00FF3E930094018715071608008316031395
:10187E00E801E901620863040319462C472C7E2C0B
:10188E00E701E70A552C01300310E20DE30DFF3E90
:10189E00031D4B2C0130E6006608E707E31F582CAA
:1018AE00592C4A2C01300310E80DE90DFF3E031DA3
:1018BE005A2C63086502031D662C62086402031C21
:1018CE00692C6A2C712C6208E4026308031CE50380
:1018DE00E502681401300310E30CE20CFF3E031D19
:1018EE00722C0130E702031D7D2C7E2C592C6908C9
:1018FE00E3006808E200080083160313E600831273
:10190E0003130C13831603130C17620C031C1F1204
:10191E0003181F16630C031C9F1203189F169F17A4
:10192E00831203131F14023083160313E400E40B17
:10193E009E2C0000BA2C3F30831203139F05D22C2D
:10194E00831203131F083F3940389F00D22C831295
:10195E0003131F083F3980389F00D22CC0308312EA
:10196E0003139F04D22C831603136608E400E501CB
:10197E006508003A0319C42CD22C6408023A0319E4
:10198E00A22C0A3A0319A72C283A0319AE2C603A56
:10199E000319B52CD22C080083160313EC01ED01AC
:1019AE00042D831603136C086707EA006808E90024
:1019BE000318E90AEC1FE42CE903831603136908E4
:1019CE00EB006B0883120313FF00831603136A08E0
:1019DE008400831203130A128A1500200A128A1534
:1019EE000A128A1570230A128A1501308316031300
:1019FE00EC070318ED0A0030ED076C086707EA00E4
:101A0E006808E9000318E90AEC1F0E2DE903831696
:101A1E0003136908EB006B0883120313FF00831690
:101A2E0003136A088400831203130A128A15002016
:101A3E000A128A15003A031D252D262DD82C0800D2
:101A4E0000300A128A15FE220A128A1507308316F2
:101A5E000313E6007C30E500E50B332DE60B332D4A
:101A6E00000003300A128A159F210A128A15F930D6
:101A7E0083160313E500432DE50B422D462D03304F
:101A8E000A128A159F210A128A154D2D03300A1249
:101A9E008A159F210A128A1502300A128A159F2171
:101AAE000A128A1502300A128A159F210A128A1505
:101ABE0008300A128A159F210A128A1500300A125E
:101ACE008A159F210A128A150C300A128A159F2137
:101ADE000A128A1500300A128A159F210A128A15D7
:101AEE0006300A128A159F210A128A1508008316DB
:101AFE000313E8006808031D852D862DAB2D6508A0
:101B0E00803EE6006608EB006B08E600043003102A
:101B1E00E60CFF3E031D8E2D6608E7006708E90000
:101B2E006B080F39E6006608EA0069080A128A1582
:101B3E009F210A128A15831603136A080A128A1540
:101B4E009F210A128A15D42D6803031DAF2DB02DC7
:101B5E00D42D6508C03EE6006608EB006B08E60073
:101B6E0004300310E60CFF3E031DB82D6608E70097
:101B7E006708E9006B080F39E6006608EA00690895
:101B8E000A128A159F210A128A15831603136A08F0
:101B9E000A128A159F210A128A150800FA2DF830AA
:101BAE008105232E0108F83901388100232E010802
:101BBE00F83902388100232E0108F83903388100E4
:101BCE00232E0108F83904388100232E0108F83934
:101BDE0005388100232E0108F83906388100232E9E
:101BEE0007308104232E831603136308003A03196A
:101BFE00042E013A03191E2E232E6208003A0319F1
:101C0E00232E023A0319D62D063A0319D92D0C3A72
:101C1E000319DE2D183A0319E32D303A0319E82D76
:101C2E00603A0319ED2DC03A0319F22D232E6208E6
:101C3E00003A0319F72D232E811281118B160B11E9
:101C4E00B230831203138100080083120313B30012
:101C5E002730A9002908AC00E92F253034060319D6
:101C6E00392E3A2E462E3408A9003308840029084E
:101C7E00831380000130A9002908B307E92FB101B1
:101C8E00B201B0014F2E30150130A9002908A60768
:101C9E00260884000A128A150A200A128A15A9003B
:101CAE00AA012A08003A03195D2E622E2908303A3D
:101CBE0003194A2E622E260884000A128A150A205B
:101CCE000A128A150A128A15FB200A128A15031C9B
:101CDE00712E722EB22E83120313B101B2010A308D
:101CEE00F0000030F100831203133208F3003108C4
:101CFE00F2000A128A15FC210A128A157108831243
:101D0E000313B2007008B100260884000A128A1567
:101D1E000A200A128A15D03EA900FF30031800309F
:101D2E00AA002908B1070318B20A2A08B20701301F
:101D3E00A9002908A607260884000A128A150A2077
:101D4E000A128A150A128A15FB200A128A1503181E
:101D5E00B12EB22E762E013083120313A607FF305A
:101D6E00260784000A128A150A200A128A15B40060
:101D7E00A900AA012A08003A0319C62EE92F29083C
:101D8E00003A0319FB2F643A0319D12E0D3A0319A9
:101D9E00D12EE92F2C08840083130008AE00840A8C
:101DAE000008AF000230A9002908AC07AF1FE02ED3
:101DBE00E12EEA2E0330A9002908B004AE09AF09BE
:101DCE00AE0A0319AF0AB401B40A3408A9002907F0
:101DDE00013E84000A128A150A200A128A15AA00E8
:101DEE000A128A150A200A128A15AB002B082F0236
:101DFE00031D032F2A082E020318062F072F082F64
:101E0E00122F0130A9002908B40705303406031D2E
:101E1E00112F122FEC2E310832040319172F182F01
:101E2E00242F3008033903191D2F1E2F242FFF30A6
:101E3E00B1070318B20AFF30B2073208803A803C6D
:101E4E00031D2B2F3108340203182E2F2F2F3B2F5B
:101E5E00831203133408A900AA012908B1022A0823
:101E6E00031CB203B2023F2F83120313B101B2015E
:101E7E00301D422F432F722F300803390319482F7C
:101E8E00492F542F2D30A9003308840029088313BD
:101E9E0080000130A9002908B30731083204031964
:101EAE00592F5A2FA02F3030A9003308840029084B
:101EBE00831380000130A9002908B307FF30B10752
:101ECE000318B20AFF30B20731083204031D702F17
:101EDE00712F5A2FA02F310832040319772F782F24
:101EEE008F2F2030A9003308840029088313800027
:101EFE000130A9002908B307FF30B1070318B20A51
:101F0E00FF30B20731083204031D8E2F8F2F782F2A
:101F1E00300803390319942F952FA02F2D30A900C7
:101F2E00330884002908831380000130A900290892
:101F3E00B3073408A9002908AD00E02F0A30A0002D
:101F4E000030A1002D08A9002907013E84000A12C5
:101F5E008A150A200A128A15F6000A128A150A2014
:101F6E000A128A15F7002F08F9002E08F8000A1237
:101F7E008A15B3230A128A15770883120313A30056
:101F8E007608A2000A128A1534230A128A158312C1
:101F9E0003132008303EAA002A08B4003408A90012
:101FAE00330884002908831380000130A900290812
:101FBE00B307FF30A9002908AD072D0A031DE82F2E
:101FCE00E92FA52F0130A607FF30260784000A123D
:101FDE008A150A200A128A15A9002908B4003408A5
:101FEE00031DFA2FFB2F342E330884008313800138
:021FFE000800D9
:08400000FF3FFF3FFF3FFF3FC0
:04400E00D420FF3F7C
:00000001FF
